:100000000C942A000C9447000C9447000C94470071
:100010000C9447000C9447000C9447000C94470044
:100020000C9447000C9447000C9447000C94470034
:100030000C9447000C9447000C9447000C94470024
:100040000C9447000C9447000C9447000C94470014
:100050000C94470011241FBECFE5D4E0DEBFCDBF16
:1000600010E0A0E6B0E0E4EEF1E002C005900D92F1
:10007000A036B107D9F710E0A0E6B0E001C01D92AC
:10008000A036B107E1F70E9449000C94F0000C94EF
:10009000000080EF8ABB30E120E290E480E83BBBC7
:1000A0004FE35DE063E0415050406040E1F700C045
:1000B00000001BBA4FE35DE063E0415050406040F8
:1000C000E1F700C000002BBB4FE35DE063E041506F
:1000D00050406040E1F700C000001BBA4FE35DE014
:1000E00063E0415050406040E1F700C000009BBB1E
:1000F0004FE35DE063E0415050406040E1F700C0F5
:1001000000001BBA4FE35DE063E0415050406040A7
:10011000E1F700C000008BBB4FE35DE063E04150BE
:1001200050406040E1F700C000001BBA4FE35DE0C3
:1001300063E0415050406040E1F700C000008BBBDD
:100140004FE35DE063E0415050406040E1F700C0A4
:1001500000001BBA4FE35DE063E041505040604057
:10016000E1F700C000009BBB4FE35DE063E041505E
:1001700050406040E1F700C000001BBA4FE35DE073
:1001800063E0415050406040E1F700C000002BBBED
:100190004FE35DE063E0415050406040E1F700C054
:1001A00000001BBA4FE35DE063E041505040604007
:1001B000E1F700C000003BBB4FE35DE063E041506E
:1001C00050406040E1F700C000001BBA4FE35DE023
:1001D00063E0415050406040E1F700C000005FCF55
:0401E000F894FFCFC1
:00000001FF
