:100000000C942A000C9434000C9434000C943400AA
:100010000C9434000C9434000C9434000C94340090
:100020000C9434000C9434000C9434000C94340080
:100030000C9434000C9434000C9434000C94340070
:100040000C9434000C9434000C9434000C94340060
:100050000C94340011241FBECFE5D4E0DEBFCDBF29
:100060000E9436000C9455000C94000080EF8ABB6F
:1000700061E070E084E090E04BB39B01082E02C089
:10008000220F331F0A94E2F7242B2BBB2FE33DE012
:1000900043E0215030404040E1F700C000001BBA6F
:0E00A00001968830910541F7E5CFF894FFCF27
:00000001FF
