:100000000C942A000C9447000C9447000C94470071
:100010000C9447000C9447000C9447000C94470044
:100020000C9447000C9447000C9447000C94470034
:100030000C9447000C9447000C9447000C94470024
:100040000C9447000C9447000C9447000C94470014
:100050000C94470011241FBECFE5D4E0DEBFCDBF16
:1000600010E0A0E6B0E0E4ECF0E002C005900D92F4
:10007000A036B107D9F710E0A0E6B0E001C01D92AC
:10008000A036B107E1F70E9449000C9460000C947F
:10009000000081E08ABB8BBB2FE936E841E02150AC
:1000A00030404040E1F700C000001BBA2FE73AE1C2
:1000B00046E0215030404040E1F700C00000EBCF67
:0400C000F894FFCFE2
:00000001FF
