:100000000C942A000C9434000C9434000C943400AA
:100010000C9434000C9434000C9434000C94340090
:100020000C9434000C9434000C9434000C94340080
:100030000C9434000C9434000C9434000C94340070
:100040000C9434000C9434000C9434000C94340060
:100050000C94340011241FBECFE5D4E0DEBFCDBF29
:100060000E9454000C945D000C9400002FEF2ABBFA
:1000700020E030E0A1E0B0E080FD02C060FF0AC0F7
:10008000EBB3AD01022E02C0440F551F0A94E2F7F4
:100090004E2B4BBB96958795769567952F5F3F4F77
:1000A0002830310549F708956CE070E089E090E070
:0E00B0000E94360080E090E00895F894FFCFA3
:00000001FF
