:100000000C942A000C9434000C9434000C943400AA
:100010000C9434000C9434000C9434000C94340090
:100020000C9434000C9434000C9434000C94340080
:100030000C9434000C9434000C9434000C94340070
:100040000C9434000C9434000C9434000C94340060
:100050000C94340011241FBECFE5D4E0DEBFCDBF29
:100060000E9436000C945F000C94000083E08ABB71
:1000700021E092E086B38032A1F42BBB3FE34DE058
:1000800083E0315040408040E1F700C000009BBB5E
:100090003FE34DE083E0315040408040E1F700C055
:1000A000000086B38111E6CF1BBA3FE34DE083E049
:1000B000315040408040E1F700C00000DBCFF894B1
:0200C000FFCF70
:00000001FF
