:100000000C942A000C9434000C9434000C943400AA
:100010000C9434000C9434000C9434000C94340090
:100020000C9434000C9434000C9434000C94340080
:100030000C9434000C9434000C9434000C94340070
:100040000C9434000C9434000C9434000C94340060
:100050000C94340011241FBECFE5D4E0DEBFCDBF29
:100060000E9436000C9483000C94000080EF8ABB41
:1000700020E190E280E430E82BBB4FE35DE063E0F9
:10008000415050406040E1F700C000009BBB4FE38F
:100090005DE063E0415050406040E1F700C0000087
:1000A0008BBB4FE35DE063E0415050406040E1F7BF
:1000B00000C000003BBB4FE35DE063E041505040B7
:1000C0006040E1F700C000008BBB4FE35DE063E000
:1000D000415050406040E1F700C000009BBB4FE33F
:1000E0005DE063E0415050406040E1F700C0000037
:1000F0002BBB4FE35DE063E0415050406040E1F7CF
:0A01000000C00000B9CFF894FFCF53
:00000001FF
