:100000000C942A000C9434000C9434000C943400AA
:100010000C9434000C9434000C9434000C94340090
:100020000C9434000C9434000C9434000C94340080
:100030000C9434000C9434000C9434000C94340070
:100040000C9434000C9434000C9434000C94340060
:100050000C94340011241FBECFE5D4E0DEBFCDBF29
:100060000E9436000C9465000C94000080EF8ABB5F
:1000700030E120E290E480E83BBB4FE35DE063E0E9
:10008000415050406040E1F700C000002BBB4FE3FF
:100090005DE063E0415050406040E1F700C0000087
:1000A0009BBB4FE35DE063E0415050406040E1F7AF
:1000B00000C000008BBB4FE35DE063E04150504067
:0E00C0006040E1F700C00000D7CFF894FFCFFA
:00000001FF
