:100000000C942A000C9434000C9434000C943400AA
:100010000C9434000C9434000C9434000C94340090
:100020000C9434000C9434000C9434000C94340080
:100030000C9434000C9434000C9434000C94340070
:100040000C9434000C9434000C9434000C94340060
:100050000C94340011241FBECFE5D4E0DEBFCDBF29
:100060000E9436000C948D000C94000080EF8ABB37
:100070001BBA17BA18BA14BA15BA11BA12BA13BE03
:1000800012BE1CBE1FBC1EBC1DBC1CBC17BC16BCBB
:100090001BBC1ABC19BC18BC19BE15BE14BE1AB8BC
:1000A00080E888B910BE16B81DB816BE61E070E0D1
:1000B00084E090E04BB39B01082E02C0220F331F57
:1000C0000A94E2F7242B2BBB2FE336E941E02150C1
:1000D00030404040E1F700C00000019688309105B3
:1000E00049F787E090E03BB3AB01082E02C0440F14
:1000F000551F0A94E2F7242F209523232BBB2FE3CF
:1001000036E941E0215030404040E1F700C00000B6
:0E01100001978230910539F7CBCFF894FFCFDD
:00000001FF
