:100000000C942A000C9434000C9434000C943400AA
:100010000C9434000C9434000C9434000C94340090
:100020000C9434000C9434000C9434000C94340080
:100030000C9434000C9434000C9434000C94340070
:100040000C9434000C9434000C9434000C94340060
:100050000C94340011241FBECFE5D4E0DEBFCDBF29
:100060000E943E000C9445000C94000098E0811121
:1000700086959150E1F780E090E008958FEF8ABB7C
:0E00800082E10E94360085BBFECFF894FFCFD0
:00000001FF
